{
  "_format": "hh-sol-artifact-1",
  "contractName": "POSBusAuditLedger",
  "sourceName": "contracts/POSBusAuditLedger.sol",
  "abi": [
    {
      "inputs": [],
      "stateMutability": "nonpayable",
      "type": "constructor"
    },
    {
      "anonymous": false,
      "inputs": [
        {
          "indexed": true,
          "internalType": "string",
          "name": "recordType",
          "type": "string"
        },
        {
          "indexed": true,
          "internalType": "string",
          "name": "recordId",
          "type": "string"
        },
        {
          "indexed": false,
          "internalType": "string",
          "name": "recordHash",
          "type": "string"
        },
        {
          "indexed": false,
          "internalType": "string",
          "name": "metadataHash",
          "type": "string"
        },
        {
          "indexed": false,
          "internalType": "uint256",
          "name": "timestamp",
          "type": "uint256"
        },
        {
          "indexed": true,
          "internalType": "address",
          "name": "anchorSender",
          "type": "address"
        }
      ],
      "name": "AuditStored",
      "type": "event"
    },
    {
      "anonymous": false,
      "inputs": [
        {
          "indexed": true,
          "internalType": "address",
          "name": "previousOwner",
          "type": "address"
        },
        {
          "indexed": true,
          "internalType": "address",
          "name": "newOwner",
          "type": "address"
        }
      ],
      "name": "OwnerTransferred",
      "type": "event"
    },
    {
      "inputs": [
        {
          "internalType": "string",
          "name": "recordType",
          "type": "string"
        },
        {
          "internalType": "string",
          "name": "recordId",
          "type": "string"
        }
      ],
      "name": "getAudit",
      "outputs": [
        {
          "internalType": "string",
          "name": "recordHash",
          "type": "string"
        },
        {
          "internalType": "string",
          "name": "metadataHash",
          "type": "string"
        },
        {
          "internalType": "uint256",
          "name": "blockTimestamp",
          "type": "uint256"
        },
        {
          "internalType": "address",
          "name": "anchorSender",
          "type": "address"
        }
      ],
      "stateMutability": "view",
      "type": "function"
    },
    {
      "inputs": [],
      "name": "owner",
      "outputs": [
        {
          "internalType": "address",
          "name": "",
          "type": "address"
        }
      ],
      "stateMutability": "view",
      "type": "function"
    },
    {
      "inputs": [
        {
          "internalType": "string",
          "name": "recordType",
          "type": "string"
        },
        {
          "internalType": "string",
          "name": "recordId",
          "type": "string"
        },
        {
          "internalType": "string",
          "name": "recordHash",
          "type": "string"
        },
        {
          "internalType": "string",
          "name": "metadataHash",
          "type": "string"
        }
      ],
      "name": "storeAuditHash",
      "outputs": [],
      "stateMutability": "nonpayable",
      "type": "function"
    },
    {
      "inputs": [
        {
          "internalType": "address",
          "name": "newOwner",
          "type": "address"
        }
      ],
      "name": "transferOwnership",
      "outputs": [],
      "stateMutability": "nonpayable",
      "type": "function"
    },
    {
      "inputs": [
        {
          "internalType": "string",
          "name": "recordType",
          "type": "string"
        },
        {
          "internalType": "string",
          "name": "recordId",
          "type": "string"
        },
        {
          "internalType": "string",
          "name": "recordHash",
          "type": "string"
        }
      ],
      "name": "verifyAuditHash",
      "outputs": [
        {
          "internalType": "bool",
          "name": "",
          "type": "bool"
        }
      ],
      "stateMutability": "view",
      "type": "function"
    }
  ],
  "bytecode": "0x608060405234801561001057600080fd5b50600080546001600160a01b0319163390811782556040519091907f8934ce4adea8d9ce0d714d2c22b86790e41b7731c84b926fbbdc1d40ff6533c9908290a3610e2f8061005f6000396000f3fe608060405234801561001057600080fd5b50600436106100575760003560e01c80638da5cb5b1461005c578063926602e11461008c5780639990daea146100af5780639f196182146100c4578063f2fde38b146100e7575b600080fd5b60005461006f906001600160a01b031681565b6040516001600160a01b0390911681526020015b60405180910390f35b61009f61009a366004610956565b6100fa565b6040516100839493929190610a08565b6100c26100bd366004610a4f565b61032e565b005b6100d76100d2366004610b13565b610636565b6040519015158152602001610083565b6100c26100f5366004610bad565b61081d565b606080600080600060018989604051610114929190610bdd565b90815260200160405180910390208787604051610132929190610bdd565b90815260200160405180910390206040518060a001604052908160008201805461015b90610bed565b80601f016020809104026020016040519081016040528092919081815260200182805461018790610bed565b80156101d45780601f106101a9576101008083540402835291602001916101d4565b820191906000526020600020905b8154815290600101906020018083116101b757829003601f168201915b505050505081526020016001820180546101ed90610bed565b80601f016020809104026020016040519081016040528092919081815260200182805461021990610bed565b80156102665780601f1061023b57610100808354040283529160200191610266565b820191906000526020600020905b81548152906001019060200180831161024957829003601f168201915b5050509183525050600282015460208201526003909101546001600160a01b0381166040830152600160a01b900460ff161515606090910152608081015190915061030a5760405162461bcd60e51b815260206004820152602960248201527f504f5342757341756469744c65646765723a206175646974207265636f7264206044820152681b9bdd08199bdd5b9960ba1b60648201526084015b60405180910390fd5b805160208201516040830151606090930151919b909a509198509650945050505050565b6000546001600160a01b031633146103585760405162461bcd60e51b815260040161030190610c27565b866103bb5760405162461bcd60e51b815260206004820152602d60248201527f504f5342757341756469744c65646765723a207265636f72645479706520636160448201526c6e6e6f7420626520656d70747960981b6064820152608401610301565b8461041c5760405162461bcd60e51b815260206004820152602b60248201527f504f5342757341756469744c65646765723a207265636f726449642063616e6e60448201526a6f7420626520656d70747960a81b6064820152608401610301565b8261047f5760405162461bcd60e51b815260206004820152602d60248201527f504f5342757341756469744c65646765723a207265636f72644861736820636160448201526c6e6e6f7420626520656d70747960981b6064820152608401610301565b6040518060a0016040528085858080601f016020809104026020016040519081016040528093929190818152602001838380828437600092019190915250505090825250604080516020601f860181900481028201810190925284815291810191908590859081908401838280828437600092019190915250505090825250426020820152336040808301919091526001606090920182905251610526908b908b90610bdd565b90815260200160405180910390208787604051610544929190610bdd565b908152604051908190036020019020815181906105619082610cd6565b50602082015160018201906105769082610cd6565b5060408281015160028301556060830151600390920180546080909401511515600160a01b026001600160a81b03199094166001600160a01b03909316929092179290921790555133906105cd9088908890610bdd565b604051809103902089896040516105e5929190610bdd565b60405180910390207f4a5cb13002617659b0de15abadd77ebc8b9cc1a1f631109d42cbc201dd90fdef8787878742604051610624959493929190610dbf565b60405180910390a45050505050505050565b6000806001888860405161064b929190610bdd565b90815260200160405180910390208686604051610669929190610bdd565b90815260200160405180910390206040518060a001604052908160008201805461069290610bed565b80601f01602080910402602001604051908101604052809291908181526020018280546106be90610bed565b801561070b5780601f106106e05761010080835404028352916020019161070b565b820191906000526020600020905b8154815290600101906020018083116106ee57829003601f168201915b5050505050815260200160018201805461072490610bed565b80601f016020809104026020016040519081016040528092919081815260200182805461075090610bed565b801561079d5780601f106107725761010080835404028352916020019161079d565b820191906000526020600020905b81548152906001019060200180831161078057829003601f168201915b5050509183525050600282015460208201526003909101546001600160a01b0381166040830152600160a01b900460ff16151560609091015260808101519091506107ec576000915050610813565b83836040516107fc929190610bdd565b604051908190039020905180516020909101201490505b9695505050505050565b6000546001600160a01b031633146108475760405162461bcd60e51b815260040161030190610c27565b6001600160a01b0381166108b25760405162461bcd60e51b815260206004820152602c60248201527f504f5342757341756469744c65646765723a206e6577206f776e65722069732060448201526b7a65726f206164647265737360a01b6064820152608401610301565b600080546040516001600160a01b03808516939216917f8934ce4adea8d9ce0d714d2c22b86790e41b7731c84b926fbbdc1d40ff6533c991a3600080546001600160a01b0319166001600160a01b0392909216919091179055565b60008083601f84011261091f57600080fd5b50813567ffffffffffffffff81111561093757600080fd5b60208301915083602082850101111561094f57600080fd5b9250929050565b6000806000806040858703121561096c57600080fd5b843567ffffffffffffffff8082111561098457600080fd5b6109908883890161090d565b909650945060208701359150808211156109a957600080fd5b506109b68782880161090d565b95989497509550505050565b6000815180845260005b818110156109e8576020818501810151868301820152016109cc565b506000602082860101526020601f19601f83011685010191505092915050565b608081526000610a1b60808301876109c2565b8281036020840152610a2d81876109c2565b604084019590955250506001600160a01b039190911660609091015292915050565b6000806000806000806000806080898b031215610a6b57600080fd5b883567ffffffffffffffff80821115610a8357600080fd5b610a8f8c838d0161090d565b909a50985060208b0135915080821115610aa857600080fd5b610ab48c838d0161090d565b909850965060408b0135915080821115610acd57600080fd5b610ad98c838d0161090d565b909650945060608b0135915080821115610af257600080fd5b50610aff8b828c0161090d565b999c989b5096995094979396929594505050565b60008060008060008060608789031215610b2c57600080fd5b863567ffffffffffffffff80821115610b4457600080fd5b610b508a838b0161090d565b90985096506020890135915080821115610b6957600080fd5b610b758a838b0161090d565b90965094506040890135915080821115610b8e57600080fd5b50610b9b89828a0161090d565b979a9699509497509295939492505050565b600060208284031215610bbf57600080fd5b81356001600160a01b0381168114610bd657600080fd5b9392505050565b8183823760009101908152919050565b600181811c90821680610c0157607f821691505b602082108103610c2157634e487b7160e01b600052602260045260246000fd5b50919050565b6020808252602a908201527f504f5342757341756469744c65646765723a2063616c6c6572206973206e6f74604082015269103a34329037bbb732b960b11b606082015260800190565b634e487b7160e01b600052604160045260246000fd5b601f821115610cd157600081815260208120601f850160051c81016020861015610cae5750805b601f850160051c820191505b81811015610ccd57828155600101610cba565b5050505b505050565b815167ffffffffffffffff811115610cf057610cf0610c71565b610d0481610cfe8454610bed565b84610c87565b602080601f831160018114610d395760008415610d215750858301515b600019600386901b1c1916600185901b178555610ccd565b600085815260208120601f198616915b82811015610d6857888601518255948401946001909101908401610d49565b5085821015610d865787850151600019600388901b60f8161c191681555b5050505050600190811b01905550565b81835281816020850137506000828201602090810191909152601f909101601f19169091010190565b606081526000610dd3606083018789610d96565b8281036020840152610de6818688610d96565b915050826040830152969550505050505056fea2646970667358221220a84c15985eba6ae947ad097521f9a1e50421919dd0140bf595f48e62ff1b2afd64736f6c63430008140033",
  "linkReferences": {},
  "deployedLinkReferences": {}
}